{
  "contractName": "EthTransfer",
  "abi": [
    {
      "inputs": [],
      "stateMutability": "nonpayable",
      "type": "constructor"
    },
    {
      "inputs": [],
      "name": "receiver",
      "outputs": [
        {
          "internalType": "address",
          "name": "",
          "type": "address"
        }
      ],
      "stateMutability": "view",
      "type": "function"
    },
    {
      "inputs": [],
      "name": "sender",
      "outputs": [
        {
          "internalType": "address",
          "name": "",
          "type": "address"
        }
      ],
      "stateMutability": "view",
      "type": "function"
    },
    {
      "stateMutability": "payable",
      "type": "receive"
    },
    {
      "inputs": [],
      "name": "getBalance",
      "outputs": [
        {
          "internalType": "uint256",
          "name": "",
          "type": "uint256"
        }
      ],
      "stateMutability": "view",
      "type": "function"
    },
    {
      "inputs": [],
      "name": "transferToReceiver",
      "outputs": [],
      "stateMutability": "nonpayable",
      "type": "function"
    }
  ],
  "bytecode": "0x608060405234801561001057600080fd5b5033600160006101000a81548173ffffffffffffffffffffffffffffffffffffffff021916908373ffffffffffffffffffffffffffffffffffffffff1602179055506102b1806100616000396000f3fe6080604052600436106100435760003560e01c806312065fe01461008f578063462567e7146100ba57806367e404ce146100d1578063f7260d3e146100fc5761008a565b3661008a57336000806101000a81548173ffffffffffffffffffffffffffffffffffffffff021916908373ffffffffffffffffffffffffffffffffffffffff160217905550005b600080fd5b34801561009b57600080fd5b506100a4610127565b6040516100b19190610204565b60405180910390f35b3480156100c657600080fd5b506100cf61012f565b005b3480156100dd57600080fd5b506100e66101a1565b6040516100f39190610260565b60405180910390f35b34801561010857600080fd5b506101116101c5565b60405161011e9190610260565b60405180910390f35b600047905090565b600160009054906101000a900473ffffffffffffffffffffffffffffffffffffffff1673ffffffffffffffffffffffffffffffffffffffff166108fc610173610127565b9081150290604051600060405180830381858888f1935050505015801561019e573d6000803e3d6000fd5b50565b60008054906101000a900473ffffffffffffffffffffffffffffffffffffffff1681565b600160009054906101000a900473ffffffffffffffffffffffffffffffffffffffff1681565b6000819050919050565b6101fe816101eb565b82525050565b600060208201905061021960008301846101f5565b92915050565b600073ffffffffffffffffffffffffffffffffffffffff82169050919050565b600061024a8261021f565b9050919050565b61025a8161023f565b82525050565b60006020820190506102756000830184610251565b9291505056fea264697066735822122037b0cd8430000246e1d389ed47203fa3ce622fb934b33fa03e2d78b9c1c5382564736f6c634300080c0033",
  "immutableReferences": {},
  "source": "// SPDX-License-Identifier: GPL-3.0\r\n\r\npragma solidity 0.8.12;\r\n\r\ncontract EthTransfer{\r\n    address public sender;\r\n    address public receiver;\r\n\r\n    constructor(){\r\n        receiver = msg.sender;//Global variable to pass the contract deployer hash address\r\n    }\r\n\r\n    receive() external payable{\r\n        sender = payable(msg.sender);//It'll transfer the ETH\r\n    }\r\n\r\n    function getBalance() public view returns(uint){\r\n        return address(this).balance; // Balance in contract address\r\n    }\r\n\r\n    function transferToReceiver() public{\r\n        payable(receiver).transfer(getBalance());\r\n    }\r\n}",
  "sourcePath": "C:\\xampp\\htdocs\\truffle-poc\\contracts\\EthTransfer.sol",
  "compiler": {
    "name": "solc",
    "version": "0.8.12+commit.f00d7308.Emscripten.clang"
  },
  "schemaVersion": "3.4.4",
  "updatedAt": "2022-02-19T14:34:45.324Z",
  "devdoc": {
    "kind": "dev",
    "methods": {},
    "version": 1
  },
  "userdoc": {
    "kind": "user",
    "methods": {},
    "version": 1
  }
}